:020000040800F2
:10000000684700205D020008C52F0008832D000806
:10001000C12F00085D080008AD3600080000000090
:100020000000000000000000000000009D0100082A
:10003000BF09000800000000F9010008FD2F0008BA
:1000400077020008770200087702000877020008AC
:10005000770200087702000877020008770200089C
:10006000770200087702000877020008770200088C
:10007000A108000877020008B1080008770200080C
:10008000C1080008D108000877020008910800089C
:10009000610800087108000881080008770200085C
:1000A000770200087702000877020008770200084C
:1000B000FD30000877020008770200087702000888
:1000C000770200087702000877020008770200082C
:1000D00077020008770200089D36000877020008C2
:1000E000770200087702000877020008770200080C
:1000F00077020008770200087702000877020008FC
:1001000077020008770200087702000877020008EB
:1001100077020008770200087702000877020008DB
:1001200077020008770200087702000877020008CB
:1001300077020008000000000000000077020008BD
:1001400077020008770200087702000877020008AB
:10015000770200087702000877020008770200089B
:10016000770200087702000877020008770200088B
:10017000770200087702000800000000000000007D
:100180007702000877020008DFF80CD000F054FB7B
:100190000048004785420008684700202C4B19683A
:1001A0000868B0E8F04F80F30988BFF36F8F4FF015
:1001B000000080F3118870470000000008480068C4
:1001C000006880F308884FF0000080F3148862B65E
:1001D00061B6BFF34F8FBFF36F8F00DF00BF00BF6B
:1001E00008ED00E0DFF80C00016841F470010160E7
:1001F000704700BF88ED00E0EFF30980BFF36F8F19
:10020000134B1A681EF0100F08BF20ED108A20E96A
:10021000F04F106009B44FF0500080F31188BFF325
:100220004F8FBFF36F8F04F01BFE4FF0000080F381
:10023000118809BC19680868B0E8F04F1EF0100F6B
:1002400008BFB0EC108A80F30988BFF36F8F704746
:1002500020000020EFF3058070470000064880472B
:1002600006480047FEE7FEE7FEE7FEE7FEE7FEE79B
:10027000FEE7FEE7FEE7FEE7E93000088901000837
:100280002DE9F05F0546002092469B4688460646CB
:10029000814640241BE0284641464746224600F05E
:1002A00034FA53465A46C01A914110D311461846A3
:1002B000224600F01BFA2D1A67EB01084F46224632
:1002C0000120002100F012FA17EB00094E41201E18
:1002D000A4F10104DFDC484631462A464346BDE826
:1002E000F09F40EA01039B0703D009E008C9121FF1
:1002F00008C0042AFAD203E011F8013B00F8013BE0
:10030000521EF9D27047D2B201E000F8012B491E0B
:10031000FBD270470022F6E710B513460A460446A2
:100320001946FFF7F0FF204610BD2DE9FE4F80462D
:1003300081EA0300C00F0C46009021F0004123F039
:100340000045B8EB0200A94105D24046214690463F
:100350001C460B46024623F00040104347D0270DB1
:10036000C7F30A00C3F30A510290401A01904028D3
:100370006BDAC3F3130040F4801B0098924620B15F
:100380000023D2EB030A63EB0B0B01985946C0F133
:100390004002504600F0AAF906460D46504659461E
:1003A000019A00F0C2F910EB08006141002487EACD
:1003B000115284EAE7731A4340D0009A62B3019A5B
:1003C000012A4FEA075215DC001B61EB02014FF0D6
:1003D000004202EA0752CDE90042001C41F58011BB
:1003E00032462B4600F0C2F903B0BDE8F08F40461C
:1003F0002146F9E7001B61EB0201001C41F5801367
:1004000000185B412018A2F5001747EB030140EAF2
:10041000D570B6196D4111E06D084FEA360645EA10
:10042000C0754FEA0752001B61EB0201001C41F549
:10043000801149084FEA30000019514132462B46DD
:1004400003B0BDE8F04F00F082B9009801224000EF
:100450000023D0EB020263EBE073009821464FEAE1
:10046000E074B8EB000061EB0401E9E783F00043BE
:100470005BE781F0004158E72DE9FE4F81EA030474
:1004800004F0004421F0004100944FF0000B23F0F1
:10049000004350EA01045ED052EA03045BD0C3F388
:1004A0000A54C1F30A552C44A4F2F3340194A0FB7E
:1004B0000254C1F3130141F48011C3F3130343F455
:1004C000801301FB024400FB034E840A970A44EAAE
:1004D000815447EA8357A4FB076802958D0A05FB00
:1004E00007854FEA932C04FB0C542705029D4FEA25
:1004F000065847EA1637B5EB08056EEB070C870E72
:10050000920E47EA811742EA8312A7FB0201B6EB7B
:100510000B0164EB00042B0D43EA0C335E1844EB33
:100520001C50DA465146E7FB0201C5F313044FEABB
:100530000B3343EA14534FEA0432019C43EA0603A7
:10054000A4F10C040294009CCDE900B400F00EF973
:1005500003B0BDE8F08F00200146F9E72DE9F04D2A
:1005600081EA030404F0004B21F0004514464FF0EB
:10057000000A23F0004150EA050220D054EA0102AB
:100580001DD0C5F30A570246C5F31303C1F3130088
:10059000C1F30A5640F4801543F48013A7EB060814
:1005A000101BD64608F2FD3873EB050002D308F1A4
:1005B000010801E092185B41B8F1000F03DA002056
:1005C0000146BDE8F08D00204FF4801106468446B8
:1005D0000EE0171B73EB050705D3121B63EB050336
:1005E00006434CEA010C49084FEA300092185B417F
:1005F00050EA0107EDD152EA030012D082EA04006A
:1006000083EA0501084305D0101BAB4106D2012245
:10061000002306E000224FF0004302E06FF00102E9
:1006200053101AEB06004CEB085110EB0A0041EB9B
:100630000B01BDE8F04D00F08AB800F0004230F048
:1006400000400AD0C10D01F56071C0F3160042EA06
:100650000151C2084007114370470020014670470E
:1006600030B5041E71F1000404DB4FF00044404239
:1006700064EB0101141E73F1000405DB1C464FF00E
:100680000043524263EB04038B4208BF824230BDF9
:1006900030B5041E71F1000404DB4FF00044404209
:1006A00064EB0101141E73F1000405DB1C464FF0DE
:1006B0000043524263EB0403994208BF904230BDAD
:1006C00030B50B46014600202022012409E021FA22
:1006D00002F59D4205D303FA02F5491B04FA02F51F
:1006E0002844151EA2F10102F1DC30BD202A04DBF2
:1006F000203A00FA02F1002070479140C2F1200335
:1007000020FA03F3194390407047202A04DB203A73
:1007100021FA02F00021704721FA02F3D040C2F121
:1007200020029140084319467047202A06DBCB1768
:10073000203A41FA02F043EAE07306E041FA02F39C
:10074000D040C2F12002914008431946704710B5CD
:10075000141E73F1000408DA401C41F100019218E4
:100760005B411A4301D120F0010010BD2DE9F04D8D
:1007700092469B4611B1B1FA81F202E0B0FA80F2E2
:1007800020329046FFF7B2FF04460F4640EA0A00C7
:1007900041EA0B0153465A46084313D0114653EA27
:1007A000010019D0C8F140025046FFF7AEFF0546E0
:1007B0000E46504659464246FFF798FF084305D07B
:1007C000012004E020463946BDE8F08D00200543B5
:1007D00046EAE0762C4337430A986305E40AA0EB27
:1007E00008000022FD0A44EA47540A3002D50020DE
:1007F0000146E9E7010510196941DDE908450019DD
:100800006941BDE8F04DA2E7C1F30A52C1F31301FB
:1008100040F2FF3341F480119A4202DA002001468F
:10082000704740F233439A42A2F2334202DC524212
:10083000FFF76BBFFFF75ABF064C074D06E0E068B5
:1008400040F0010394E8070098471034AC42F6D317
:10085000FFF79EFC085400082854000800BFFEE77C
:1008600010B5024800F0D4FA10BD0000C00300200B
:1008700010B5024800F0CCFA10BD0000C003002003
:1008800010B5024800F0C4FA10BD0000C0030020FB
:1008900010B5024800F0BCFA10BD0000C0030020F3
:1008A00010B5024800F08EFE10BD00005805002073
:1008B00010B5024800F086FE10BD0000B80500200B
:1008C00010B5024800F07EFE10BD00009804002024
:1008D00010B5024800F076FE10BD0000F8040020BC
:1008E0000146087810381823B0FBF3F20848805C02
:1008F000C865032A05D908686FF30900001D8865DB
:1009000003E008686FF309008865886D7047000090
:10091000DC530008014600208A6A8B69CBB932B1EA
:10092000012A0DD0022A03D0032A10D10EE000BF05
:10093000CB6A03F08073B3F1807F00D1012007E020
:10094000CB6AB3F1C07F00D1012001E000E000BF1D
:1009500034E08B69B3F5005F1AD132B1012A07D0B8
:10096000022A03D0032A11D10AE000BF01200EE0C1
:10097000CB6A03F08073B3F1807F00D1012006E0E1
:10098000CB6AB3F1C07F00D1012000E000BF15E0C9
:1009900032B1012A05D0022A04D0032A0CD103E087
:1009A00000BF00BF012008E0CB6A03F08073B3F101
:1009B000807F00D1012000E000BF00BF704770477A
:1009C00072B600BFFEE710B5024692F82030012B48
:1009D00001D0022B06D11068406908431468606199
:1009E000002010BD506A40F4802050620120F8E7DA
:1009F000F0B504460D461E4694F8207020688368C2
:100A0000A86800B900E000BF012F01D0022F7CD1FF
:100A100003F0806030B903F0006018B903F0805033
:100A2000002873D0C3F30161022905D9606A40F43C
:100A3000000060620120F0BD012088403060A8689D
:100A400060B9B5F800C0E86840EA4C5C206800F581
:100A5000C07000EB0110C0F800C00FE0D5E901C084
:100A600040EACC00D5F80CC040EA0C00D4F800C035
:100A70000CF5C07C0CEB011CCCF80000D5F810C0C4
:100A8000206800F5C07000EB0110C0F804C0287D9C
:100A900001280ED1206800F5C07000EB01104068FD
:100AA00040F4807C206800F5C07000EB0110C0F8B5
:100AB00004C0D079000692F806C040EA0C4092F8D3
:100AC00005C040EA0C2C10794CEA000C206800F5B7
:100AD000C07000EB0110C0F80CC0D078000692F88E
:100AE00002C040EA0C4092F801C040EA0C2092F8A3
:100AF00000C040EA0C00D4F800C00CF5C07C0CEB40
:100B0000011CCCF80800206801E016E00FE000F5B9
:100B1000C07000EB0110006840F0010C206800F587
:100B2000C07000EB0110C0F800C0002083E7606ACD
:100B300040F40010606201207DE7606A40F480208C
:100B40006062012077E70000F0B504460A4621689C
:100B500094F82050012D01D0022D7ED1424901F59B
:100B60000071086840F001000860086820F47C50BB
:100B700008600868566A40EA06200860107D00F0A8
:100B80001F06012000FA06F3C8699843C861A1F561
:100B90000071D069C8B9D1F80C029843C1F80C02B1
:100BA000908880B2968940EA064601F51070576930
:100BB00040F83760108880B2168940EA064601F591
:100BC0001070576900EBC7004660D069012819D141
:100BD000D1F80C021843C1F80C02908880B2168834
:100BE00040EA064601F51070576940F83760908971
:100BF00080B2168940EA064601F51070576900EB8D
:100C0000C7004660906928B9D1F804029843C1F83A
:100C1000040204E0D1F804021843C1F80402106988
:100C200028B9D1F814029843C1F8140204E0D1F8AD
:100C300014021843C1F81402106A012804D1D1F833
:100C40001C021843C1F81C02D1F8000220F0010078
:100C5000C1F800020020F0BDFFE7606A40F4802088
:100C600060620120F7E7000000640040704710B5A3
:100C70000246002092F82030012B01D0022B09D12E
:100C800021B91468E46804F0030003E014682469DF
:100C900004F0030010BD70B5044694F82050012DF7
:100CA00001D0022D7DD151B92068C06800F0030049
:100CB00080B9606A40F400106062012070BD206855
:100CC000006900F0030028B9606A40F40010606217
:100CD0000120F3E7206800F5D87000EB01100068F0
:100CE00000F004009060906840B9206800F5D8706A
:100CF00000EB01100068400D106007E0206800F56F
:100D0000D87000EB01100068C0085060206800F542
:100D1000D87000EB0110006800F00200D06020687D
:100D200000F5D87000EB0110406800F00F00106172
:100D3000206800F5D87000EB0110406800F47F4097
:100D4000000A9061206800F5D87000EB011040683F
:100D5000000C5061206800F5D87000EB011080682D
:100D60001870206800F5D87000EB0110806800F45E
:100D70007F40000A5870206800F5D87000EB011021
:100D8000806800F47F00000C9870206800F5D8702F
:100D900000EB01108068000ED870206800F5D87054
:100DA00000E02FE000EB0110C0681871206800F52A
:100DB000D87000EB0110C06800F47F40000A587141
:100DC000206800F5D87000EB0110C06800F47F00C7
:100DD000000C9871206800F5D87000EB0110C06815
:100DE000000ED87131B92068C06840F02000266834
:100DF000F06005E02068006940F02000266830615E
:100E000000205BE7606A40F480206062012055E7C3
:100E10002DE9F05F04460025206846692068D0F877
:100E20000490206887682068D0F80CA02068D0F86B
:100E300010B02068D0F8188006F00100002855D0C6
:100E400007F00100C0B101202168886007F00200AE
:100E500018B1204600F045FB0EE007F0040010B189
:100E600045F4006508E007F0080010B145F480552E
:100E700002E0204600F034FB07F48070C8B14FF464
:100E800080702168886007F4007018B1204600F077
:100E90002AFB0EE007F4806010B145F4005508E02D
:100EA00007F4006010B145F4804502E0204600F0F0
:100EB00019FB07F48030C8B14FF480302168886096
:100EC00007F4003018B1204600F00FFB0EE007F4E5
:100ED000802010B145F4004508E007F4002010B16F
:100EE00045F4803502E0204600F0FEFA06F00800E6
:100EF00038B10AF0100020B145F4007510202168C7
:100F0000C86006F0040040B10AF0080028B10820CB
:100F10002168C860204600F01FFA06F0020038B1D0
:100F20002068C06800F0030010B1204600F016FAF7
:100F300006F0400038B10BF0100020B145F4806598
:100F400010202168086106F0200040B10BF0080075
:100F500028B1082021680861204600F08FFA06F0C9
:100F6000100038B12068006900F0030010B120467D
:100F700000F085FA06F4003040B109F0100028B105
:100F8000102021684860204600F07AFA06F480308C
:100F900040B109F0080028B10820216848602046C7
:100FA00000F0A4FA06F4004088B309F0040078B316
:100FB00006F4807020B108F0010008B145F0010589
:100FC00006F4007020B108F0020008B145F00205F7
:100FD00006F4806020B108F0040008B145F0040573
:100FE00006F40060A0B108F0700088B108F070004D
:100FF000402817D006DC10280BD020280CD0302831
:1010000019D10CE0502810D0602814D110E01DE058
:1010100019E045F008050FE045F010050CE045F03B
:10102000200509E045F0400506E045F0800503E0B5
:1010300045F4807500E000BF00BF2068806920F0A3
:101040007000216888610420216848602DB1606AC1
:10105000284360622046FFF709FEBDE8F09F70B5A7
:1010600004460CB9012070BD94F8200010B9204648
:1010700000F0B0F82068006840F0010021680860C6
:1010800000F036FD05460DE000F032FD401B0A2859
:1010900008D9606A40F400306062052084F82000BE
:1010A0000120E0E72068406800F001000028EBD054
:1010B0002068006820F002002168086000F018FD38
:1010C00005460DE000F014FD401B0A2808D9606AAF
:1010D00040F400306062052084F820000120C2E75F
:1010E0002068406800F002000028EBD1207E012833
:1010F00006D12068006840F080002168086005E0A3
:101100002068006820F0800021680860607E012867
:1011100006D12068006840F040002168086005E0C2
:101120002068006820F0400021680860A07E012847
:1011300006D12068006840F020002168086005E0C2
:101140002068006820F0200021680860E07E012807
:1011500006D12068006820F010002168086005E0D2
:101160002068006840F0100021680860207F012896
:1011700006D12068006840F008002168086005E09A
:101180002068006820F0080021680860607F01285E
:1011900006D12068006840F004002168086005E07E
:1011A0002068006820F0040021680860D4E902018A
:1011B000084321690843616908436168491E08437F
:1011C0002168C86100206062012084F820000020AE
:1011D00049E7000010B586B00446142101A8FFF7C6
:1011E00099F85749206888425AD156480068401CEF
:1011F000544908600846006801280FD100BF00204C
:1012000000905148006840F000704F49086008465F
:10121000006800F00070009000BF00BF00BF002019
:10122000009049481038006840F0010046491039E4
:1012300008600846006800F00100009000BF00BF91
:101240004FF4C05001900220029000200390032030
:1012500004900920059001A93C4800F049FB0022B8
:101260000521132000F008FD132000F0F5FC0022FA
:101270000521142000F000FD142000F0EDFC0022F8
:101280000521152000F0F8FC152000F0E5FC0022F7
:101290000521162000F0F0FC162000F0DDFC4DE0EA
:1012A0002B492068884249D100BF00200090264881
:1012B000006840F08060244908600846006800F03B
:1012C0008060009000BF00BF1E480068401C1D49A0
:1012D00008600846006801280FD100BF0020009078
:1012E0001948006840F00070174908600846006817
:1012F00000F00070009000BF00BF00BF0020009011
:1013000011481038006840F002000F491039086099
:101310000846006800F00200009000BF00BF4FF4D4
:10132000405001900220029000200390032004907E
:101330000920059001A9074800F0DAFA06B010BDAF
:10134000006400400C0000204038024000000240D1
:1013500000680040000402407047000030B589B0CA
:1013600005461C2102A8FEF7D5FF08200690FF20A5
:1013700008900020049005904FF401700290002026
:101380000090019000213648FFF771FC28B16B46B0
:1013900002AA00213248FFF77EFC3248B0F9000073
:1013A000314908809DF801009DF8001040EA0120B5
:1013B00000B22C4908809DF803009DF8021040EA15
:1013C000012000B200EE100AB8EEC00A274880EDF6
:1013D000030A9DF805009DF8041040EA012000B2C0
:1013E00000EE100AB8EEC00A204880ED040A9DF80D
:1013F000060000EE100AB8EE400A1C4880ED050A0F
:101400001848008818490988401A04B214F5805F0A
:1014100005DA17480068401C1549086007E0B4F574
:10142000805F04DD12480068401E114908600D48C5
:10143000B0F9000000EE100AB8EEC00A0C48D0ED7A
:10144000000AF8EEE00A9FED0B1A00EE810ABDEEED
:10145000C00A10EE100A00B20749088009B030BD7A
:10146000C00300208A000020880000205043002094
:101470008C0000200000004690000020704770475C
:10148000704770B5044694F82000012822D102204C
:1014900084F820002068006820F0010021680860BE
:1014A00000F026FB05460DE000F022FB401B0A2859
:1014B00008D9606A40F400306062052084F820009A
:1014C000012070BD2068406800F001000028EBD1C9
:1014D0006062F6E7606A40F4002060620120F0E795
:1014E000704770477047704770477047704770B5D6
:1014F0000446A56D00F0FCFA064694F83500022873
:1015000008D08020606500BF002084F8340000BF50
:10151000012070BD2068006820F016002168086076
:101520002068406920F0800021684861206C08B97B
:10153000A06C28B12068006820F0080021680860CD
:101540002068006820F001002168086010E000F0C9
:10155000CFFA801B05280BD920206065032084F872
:10156000350000BF002084F8340000BF0320D0E71E
:101570002068006800F001000028E8D194F85C10B1
:101580003F208840A860012084F8350000BF00207B
:1015900084F8340000BF00BFBBE7014691F8350076
:1015A000022803D08020486501207047052081F87B
:1015B00035000868006820F001000A68106000200B
:1015C000F3E70000F8B50446002000908C4800685E
:1015D0004FF41651B0FBF1F7A56D2E6894F85C102E
:1015E00008208840304098B12068006800F004006E
:1015F00070B12068006820F004002168086094F849
:101600005C1008208840A860606D40F001006065B3
:1016100094F85C1001208840304068B1206840692F
:1016200000F0800040B194F85C1001208840A86070
:10163000606D40F00200606594F85C100420884002
:10164000304068B12068006800F0020040B194F8B2
:101650005C1004208840A860606D40F00400606564
:1016600094F85C1010208840304078B320680068FF
:1016700000F0080050B394F85C1010208840A86077
:101680002068006800F4802080B12068006800F4C1
:10169000002028B9206CC8B12046216C884715E08D
:1016A000A06C98B12046A16C88470FE020680068C4
:1016B00000F4807028B92068006820F008002168D4
:1016C0000860206C10B12046216C884794F85C10AB
:1016D000202088403040002865D02068006800F055
:1016E000100000285FD094F85C1020208840A8608B
:1016F00094F83500052828D12068006820F01600ED
:10170000216808602068406920F0800021684861F5
:10171000206C08B9A06C28B12068006820F008008F
:101720002168086094F85C103F208840A860012080
:1017300084F8350000BF002084F8340000BF206D1D
:1017400010B12046216D8847F8BD2068006800F47C
:10175000802080B12068006800F4002028B9606C07
:1017600010B12046616C88471DE0E06BD8B120467F
:10177000E16B884717E02068006800F4807068B962
:101780002068006820F0100021680860012084F8BB
:10179000350000BF002084F8340000BFE06B10B1BA
:1017A0002046E16B8847606D38B3606D00F0010042
:1017B000F0B1052084F835002068006820F00100B1
:1017C0002168086000BF0098401C0090B84200D912
:1017D00005E02068006800F001000028F3D100BF98
:1017E000012084F8350000BF002084F8340000BFD9
:1017F000E06C10B12046E16C884700BFA4E7000010
:101800001C0000202DE9F0410446002500F070F98D
:10181000074614B90120BDE8F081606A00B100BF3D
:10182000022084F8350000BF002084F8340000BF97
:101830002068006820F00100216808600AE000F0DC
:1018400057F9C01B052805D920206065032084F8BE
:101850003500E0E72068006800F001000028EED1C4
:101860002068056821480540D4E901010843E16882
:1018700008432169084361690843A1690843E16994
:101880000843216A08430543606A042803D1D4E968
:101890000B0108430543206805602068456925F071
:1018A0000705606A0543606A04280DD1A06A0543F4
:1018B000E06A48B12046FFF72DF828B14020606566
:1018C000012084F83500A6E7206845612046FFF72F
:1018D00007F8064694F85C103F208840B06000206E
:1018E0006065012084F83500002094E73F8010F007
:1018F000F8B502460B460025002400200021D6E062
:10190000012606FA01F51E6806EA0504AC4274D108
:101910001E7906F00306012E04D01E7906F0030698
:10192000022E13D190684F000326BE40B0434F00F3
:10193000DE68BE4030439060506801268E40B04360
:101940001E79C6F300168E40304350601E7906F0B3
:101950000306032E09D0D0684F000326BE40B043D3
:101960004F009E68BE403043D0601E7906F00306EB
:10197000022E13D1CF0802F1200656F827004E0799
:10198000F70E0F26BE40B0434F07FF0E1E69BE4044
:101990003043CF0802F1200646F8270010684F00B8
:1019A0000326BE40B0431E7906F003064F00BE403A
:1019B000304310605E6806F44036002E76D000BFDB
:1019C000002600963C4E366846F480463A4F3E600C
:1019D0003E46366806F48046009600BF00BF374E8C
:1019E0008F0856F827008E07370F0F26BE40B043EA
:1019F000334EB24202D1002624E057E0314EB242CB
:101A000001D101261EE0304EB24201D1022619E07A
:101A10002E4EB24201D1032614E02D4EB24201D126
:101A200004260FE02B4EB24201D105260AE02A4ED1
:101A3000B24201D1062605E0284EB24201D1072666
:101A400000E008268F073F0FBE4030431B4E8F0833
:101A500046F82700224E3068A0435E6806F48016E0
:101A600006B120431E4E3060361D3068A0435E68CC
:101A700006F4001606B12043194E361D3060184E8C
:101A8000361F3068A0435E6806F4003606B1204376
:101A9000134E361F3060361F3068A0435E6806F470
:101AA000803606B120430E4E083E3060491C102996
:101AB000FFF426AFF8BD000044380240083801406A
:101AC000000002400004024000080240000C0240F6
:101AD000001002400014024000180240001C0240A6
:101AE000083C01400AB1816101E00B048361704749
:101AF000014800687047000010000020034800689B
:101B00000349097808440149086070471000002023
:101B10001800002010B50D48006840F400700B4913
:101B200008600846006840F4806008600846006865
:101B300040F480700860032000F0DCF80F2000F013
:101B400007F800F05FF8002010BD0000003C0240E4
:101B50002DE9F04188B004460027B84600BF0020B8
:101B600001902448006840F00100224908600846BE
:101B7000006800F00100019000BF00BF02A903A8A7
:101B800000F08EF9069F1FB900F0B2F9054602E099
:101B900000F0AEF945001848B5FBF0F0A0F10108DF
:101BA0004FF080401549086040F2E7311348C160AA
:101BB000C0F80480002101618160816100F060FC57
:101BC000064696B90D4800F08FFC06466EB91C20FB
:101BD00000F042F8102C07D2002221461C2000F011
:101BE0004BF80748046000E00126304608B0BDE825
:101BF000F08100004038024040420F0018060020EB
:101C00001400002008B500BF0020009011480068B3
:101C100040F480400F4908600846006800F48040A6
:101C2000009000BF00BF00BF00200090081F0068A8
:101C300040F08050091F08600846006800F080509E
:101C4000009000BF00BF00220F21901E00F014F88A
:101C500008BD00004438024001460846002809DB60
:101C600000F01F0301229A4043099B0003F1E02387
:101C7000C3F8002100BF70472DE9F05F80460D4694
:101C80001646002701F024FD074639462A4633460A
:101C900001F00700C0F1070ABAF1040F02D94FF0B2
:101CA000040A01E0C0F1070AD14600F1040ABAF1C2
:101CB000070F02D24FF0000A01E0A0F1030AD44658
:101CC0004FF0010A0AFA09FAAAF1010A0AEA020A1D
:101CD0000AFA0CFA4FF0010B0BFA0CFBABF1010BFB
:101CE0000BEA030B4AEA0B042146404601F0F8FCDC
:101CF000BDE8F09F00BF00F00702064B19684FF6E1
:101D0000FF031940044B0B4343EA0221014B1960C6
:101D100000BF70470CED00E00000FA0570B5044606
:101D20000D460CB9012070BD5848006800F007004E
:101D3000A84209D255490D700846006800F0070016
:101D4000A84201D00120EEE7207800F0020002282E
:101D50001DD1207800F00400042805D14C4800680B
:101D600040F4E0504A490860207800F00800082854
:101D700005D14748006840F4604045490860444840
:101D8000006820F0F000A16808434149086020780D
:101D900000F00100A8B36068012807D13C4808386A
:101DA0000068C0F34040B8B90120BCE76068022871
:101DB00002D06068032807D1354808380068C0F3AE
:101DC000406048B90120AEE7314808380068C0F3E8
:101DD000400008B90120A6E72D48006820F0030064
:101DE000616808432A490860FFF782FE064609E059
:101DF000FFF77EFE801B41F28831884202D9032022
:101E000091E707E02248006800F00C006168B0EB41
:101E1000810FEDD11D48006800F00700A84209D9E4
:101E20001A490D700846006800F00700A84201D06A
:101E3000012078E7207800F00400042807D1144836
:101E4000006820F4E050E1680843114908602078F8
:101E500000F00800082808D10D48006820F4604010
:101E6000216940EAC1000A49086000F061F80849A8
:101E70000968C1F30311074A515CC840064908606C
:101E800006480068FFF764FE00204CE7003C024073
:101E900008380240E45300081C0000201400002011
:101EA0000F2202600D4A126802F0030242600B4AE0
:101EB000126802F0F0028260084A126802F4E052EE
:101EC000C260064A126802F46042D2080261044A03
:101ED000126802F007020A607047000008380240EA
:101EE000003C024001480068704700001C000020D0
:101EF00000B5FFF7F7FF04490968C1F38221034ADF
:101F0000515CC84000BD000008380240F45300088E
:101F100000B5FFF7E7FF04490968C1F34231034AFE
:101F2000515CC84000BD000008380240F45300086E
:101F30002DE9F047002400250026A1462548006829
:101F400000F00C0020B1042805D008283AD105E0A3
:101F5000DFF8849039E0DFF8849036E01D48001FF8
:101F6000006800F03F041B48001F006800F4800078
:101F700078B11A481749091F0968C1F38811A0FBF5
:101F800001700146224600233846FEF779F90546DE
:101F90000EE011480F49091F0968C1F38811A0FB21
:101FA00001700146224600233846FEF769F90546CE
:101FB0000848001F0068C0F30140401C4600B5FB04
:101FC000F6F902E0DFF8109000BF00BF4846BDE818
:101FD000F0870000083802400024F40040787D01BA
:101FE000F8B504460CB90120F8BD207800F00100D6
:101FF000002874D0F948006800F00C0004280DD0C7
:10200000F648006800F00C00082813D1F348001FC0
:10201000006800F48000B0F5800F0BD1EF4808385D
:102020000068C0F34040002859D06068002856D1AD
:102030000120D9E700BF6068B0F5803F08D1E748CC
:102040000838006840F48030E449083908601EE030
:102050006068B0F5A02F0DD1E0480838006840F462
:102060008020DE49083908600846006840F4803066
:1020700008600CE0D9480838006820F48030D7495F
:10208000083908600846006820F48020086000BF16
:10209000606890B1FFF72CFD054606E0FFF728FDCC
:1020A000401B642801D903209EE7CC48083800680B
:1020B000C0F340400028F1D011E0FFF719FD0546BC
:1020C00006E0FFF715FD401B642801D903208BE7CC
:1020D000C24808380068C0F340400028F1D1207899
:1020E00000F0020002285FD1BC48006800F00C003C
:1020F00058B1BA48006800F00C0008281CD1B74855
:10210000001F006800F48000B0B9B44808380068C7
:10211000C0F3400020B1E068012801D0012063E74E
:10212000AE480838006820F0F800216940EAC10094
:10213000AA490839086037E0E06800B30120A849DF
:102140000860FFF7D5FC054606E0FFF7D1FC401B11
:10215000022801D9032047E7A04808380068C0F3E7
:1021600040000028F1D09D480838006820F0F800B1
:10217000216940EAC10099490839086014E000204B
:1021800097490860FFF7B4FC054606E0FFF7B0FC8E
:10219000401B022801D9032026E790480838006830
:1021A000C0F340000028F1D1207800F00800082892
:1021B0002CD16069A8B101208A490860FFF798FC1A
:1021C000054606E0FFF794FC401B022801D90320D6
:1021D0000AE782486C300068C0F340000028F1D064
:1021E00014E000207F490860FFF782FC054606E006
:1021F000FFF77EFC401B022801D90320F4E6774854
:102200006C300068C0F340000028F1D1207800F065
:102210000400042870D1002770483830006800F0AE
:10222000805090B900BF002000906C4838300068A2
:1022300040F080506949383108600846006800F075
:102240008050009000BF00BF01276748006800F47D
:102250008070B0B96448006840F4807062490860DA
:10226000FFF746FC054606E0FFF742FC401B02284C
:1022700001D90320B8E65C48006800F480700028AB
:10228000F2D000BFA068012808D154486830006827
:1022900040F001005149683108601DE0A068052840
:1022A0000DD14E486830006840F004004B49683159
:1022B00008600846006840F0010008600CE04748EC
:1022C0006830006820F00100444968310860084621
:1022D000006820F00400086000BFA068A8B1FFF704
:1022E00007FC054609E0FFF703FC401B41F288317B
:1022F000884202D9032077E626E038486830006833
:10230000C0F340000028EED013E0FFF7F1FB0546D4
:1023100008E0FFF7EDFB401B41F28831884201D90C
:10232000032061E62D4868300068C0F340000028B3
:10233000EFD1012F07D129483830006820F08050B4
:1023400026493831086000BFA069002845D02348DD
:10235000006800F00C0008285DD0A069022845D173
:1023600000201F490866FFF7C3FB054606E0FFF79C
:10237000BFFB401B022801D9032035E61748083867
:102380000068C0F340600028F1D1D4E90701084398
:10239000616A40EA81110122A06AC2EB500041EA61
:1023A00000412C20005D41EA00600C49091F0860D3
:1023B00001200B490866FFF79BFB054606E0FFF787
:1023C00097FB401B022801D903200DE6034808387B
:1023D0000068C0F340600028F1D049E008380240AE
:1023E00000004742800E4742007000400020214913
:1023F0000866FFF77DFB054606E0FFF779FB401B0B
:10240000022801D90320EFE51B480068C0F34060B3
:102410000028F2D12CE0A069012800D1E4E516489B
:10242000001D0668A069012820D006F48001E0693B
:1024300081421BD106F03F01206A814216D147F646
:10244000C0703040616AB0EB811F0FD106F440319B
:102450000122A06AC2EB5000B1EB004F06D106F09A
:1024600070612C20005DB1EB006F01D00120BBE555
:102470000020B9E50000474200380240704770472D
:1024800010B504460CB9012010BD94F83D0028B9E0
:10249000002084F83C00204600F025F8022084F853
:1024A0003D00211D206800F031FE012084F8460027
:1024B00000BF84F83E0001213F2001554020015516
:1024C0004120015500BF00BF012084F84200432095
:1024D0000155442001554520015500BF012084F8D5
:1024E0003D000020D0E77047014691F83D000128EB
:1024F00001D001207047022081F83D000868C068C3
:1025000040F001000B68D8601A4B086898421BD055
:102510000868B0F1804F17D0174B0868984213D065
:10252000164B086898420FD0154B086898420BD09C
:10253000144B0868984207D0134B0868984203D0A0
:10254000124B086898420CD10868806800F00702B6
:10255000062A0CD00868006840F001000B6818607B
:1025600005E00868006840F001000B681860002072
:10257000C0E70000000001400004004000080040E7
:10258000000C0040000401400040014000180040E1
:10259000704710B5044620680069C0F34000D8B108
:1025A0002068C068C0F34000B0B16FF0020021683D
:1025B0000861012020772068806900F0030018B1CD
:1025C0002046FFF7E5FF05E0204600F0ADF8204685
:1025D00000F0ABF80020207720680069C0F380008D
:1025E000D8B12068C068C0F38000B0B16FF00400BB
:1025F00021680861022020772068806900F440701B
:1026000018B12046FFF7C4FF05E0204600F08CF823
:10261000204600F08AF80020207720680069C0F387
:10262000C000D8B12068C068C0F3C000B0B16FF07E
:10263000080021680861042020772068C06900F044
:10264000030018B12046FFF7A3FF05E0204600F085
:102650006BF8204600F069F80020207720680069B8
:10266000C0F30010D8B12068C068C0F30010B0B14A
:102670006FF0100021680861082020772068C06989
:1026800000F4407018B12046FFF782FF05E02046B5
:1026900000F04AF8204600F048F800202077206833
:1026A000006900F0010058B12068C06800F0010026
:1026B00030B16FF0010021680861204600F036F863
:1026C00020680069C0F3C01058B12068C068C0F32A
:1026D000C01030B16FF08000216808612046FFF71C
:1026E000CDFE20680069C0F3801058B12068C06832
:1026F000C0F3801030B16FF04000216808612046BF
:1027000000F01DF820680069C0F3401058B120683F
:10271000C068C0F3401030B16FF02000216808613C
:102720002046FFF7ACFE10BD7047704710B5044659
:102730002068B0F1804F01D1FFF7E0F910BD70477C
:10274000704770472DE9F84F0446206805682068F7
:10275000C668206847694FF00009CA4605F00F09AE
:10276000B9F1000F0AD105F0200038B106F02000C1
:1027700020B1204600F086FDBDE8F88FB9F1000FCA
:102780007CD007F0010018B906F49070002875D0CD
:1027900005F0010030B106F4807018B1206C40F0F3
:1027A0000100206405F0040030B107F0010018B109
:1027B000206C40F00200206405F0020030B107F008
:1027C000010018B1206C40F00400206405F00800FE
:1027D00048B106F0200010B907F0010018B1206CD4
:1027E00040F008002064206C002846D005F020004E
:1027F00028B106F0200010B1204600F043FD20680B
:102800004069C0F3801A206C00F0080010B9BAF1DA
:10281000000F2DD0204600F0EFFC2068406900F04A
:102820004000402820D100BF00BF2168143151E88A
:10283000001F21F040002168143141E80002002A05
:10284000F3D100BFA06B50B17548A16B0865A06BB8
:10285000FEF7A3FE88B1A06B016D88470DE020460E
:10286000FFF76FFF09E009E02046FFF76AFF04E089
:102870002046FFF766FF002020647DE7206B0128DB
:1028800076D105F01000002872D006F01000002864
:10289000FAD000BF002000902068006800902068F7
:1028A0004068009000BF00BF2068406900F0400011
:1028B00040285ED1A06B006840681FFA80F8B8F12C
:1028C000000F54D0A08D404551DDA4F82E80A06BA0
:1028D000C069B0F5807F43D000BF00BF21680C31D4
:1028E00051E8001F21F4807021680C3141E800029A
:1028F000002AF3D100BF00BF00BF2168143151E8A6
:10290000001F21F001002168143141E80002002A73
:10291000F3D100BF00BF00BF2168143151E8001F90
:1029200021F040002168143141E80002002AF3D16F
:1029300000BF202084F83E000020206300BF00BFBD
:1029400021680C3151E8001F21F0100021680C3182
:1029500041E80002002AF3D100BFA06BFEF7C7FDDB
:10296000A08DE28D801A81B22046FFF7E9FE03E7D1
:1029700040E0A08DE18D401A1FFA80F8E08DC0B3D1
:10298000B8F1000F35D000BF00BF21680C3151E80D
:10299000001F21F4907021680C3141E80002002AE8
:1029A000F3D100BF00BF00BF2168143151E8001F00
:1029B00021F001002168143141E80002002AF3D11E
:1029C00000BF202084F83E000020206300BF00BF2D
:1029D00021680C3151E8001F21F0100021680C31F2
:1029E00041E80002002AF3D100BF41462046FFF72C
:1029F000A7FEC1E605F0800030B106F0800018B1F6
:102A0000204600F0D1FDB7E605F0400030B106F0F9
:102A1000400018B1204600F025FCADE600BFABE653
:102A2000E531000810B504460CB9012010BDA069BD
:102A300000B100E000BF94F83D0028B9002084F800
:102A40003C00204600F028F8242084F83D0020684F
:102A5000C06820F400502168C860204600F08EFC59
:102A60002068006920F4904021680861206840696E
:102A700020F02A00216848612068C06840F40050B6
:102A80002168C86000202064202084F83D0084F87C
:102A90003E000020CAE7000010B586B004461421AD
:102AA00001A8FDF737FC77492068884275D100BF3F
:102AB000002000907448006840F4003072490860BB
:102AC0000846006800F40030009000BF00BF00BF5F
:102AD000002000906C481038006840F001006A49FE
:102AE000103908600846006800F00100009000BF3F
:102AF00000BF0C20019002200290002003900320D0
:102B000004900720059001A96048FEF7F1FE604897
:102B1000604908604FF00060486000215D488160B6
:102B2000C1604FF480610161002141618161C16137
:102B300001624162FEF766FE08B1FDF741FF00BF8A
:102B40005448A063846300BF51481830524908605C
:102B50004FF00060486040214F4881600021C16013
:102B60004FF480610161002141618161C1610162B5
:102B70004162FEF747FE08B1FDF722FF00BF46485D
:102B80006063846300BF002205212620FFF774F8EC
:102B90002620FFF761F872E0FFE74049206888428D
:102BA0006DD100BF002000903748006840F48020BD
:102BB000354908600846006800F48020009000BF96
:102BC00000BF00BF002000902F481038006840F080
:102BD00002002D49103908600846006800F0020024
:102BE000009000BF00BF4FF44060019002200290AF
:102BF00000200390032004900720059001A9284895
:102C0000FEF776FE22486038264908604FF00060E3
:102C10004860002123488160C1604FF480610161F8
:102C2000002141618161C16101624162FEF7EAFDFB
:102C300008B1FDF7C5FE00BF1A48A063846300BF5A
:102C400013483038184908604FF000604860402150
:102C5000154881600021C1604FF48061016100214D
:102C600041618161C16101624162FEF7CBFD08B142
:102C7000FDF7A6FE00BF0C486063846300BF06B08A
:102C800010BD0000004400404038024000000240F7
:102C90008860024098040020F804002000480040AA
:102CA0000004024058050020B805002070472DE9B7
:102CB000F84F04460E46174699464FF0000A94F81E
:102CC0003D0020285AD106B117B90120BDE8F88F80
:102CD00000BF94F83C00012801D10220F6E7012052
:102CE00084F83C0000BF00202064212084F83D00CF
:102CF000FEF7FEFE8246A784E784A068B0F5805FF9
:102D000004D1206910B90025B04602E035464FF0E5
:102D1000000800BF002084F83C0000BF1BE05346C1
:102D2000002280212046CDF8009000F06DFC08B113
:102D30000320CBE745B9B8F80000C0F308002168CC
:102D4000486008F1020803E02878216848606D1C9B
:102D5000E08C401EE084E08C0028E0D15346002245
:102D600040212046CDF8009000F04EFC08B1032031
:102D7000ACE7202084F83D000020A7E70220A5E76B
:102D8000704700BFFEE7000010B50D480D49086010
:102D90000720486000210B488160C1604FF48031FA
:102DA0000161490141610021017641768176C17658
:102DB00001774177FEF753F908B1FDF701FE10BD29
:102DC00000640040C003002010B50E480E490860A2
:102DD0000620486000210C488160C1604FF44031FA
:102DE00001614FF4801141610021017641768176C5
:102DF000C17601774177FEF732F908B1FDF7E0FDC2
:102E000010BD000000680040E803002008B500BFC6
:102E1000002000901648006840F400101449086033
:102E20000846006800F40010009000BF00BF0022B8
:102E300005210C20FEF720FF0C20FEF70DFF0022DD
:102E400005210E20FEF718FF0E20FEF705FF0022D9
:102E500005211020FEF710FF1020FEF7FDFE0022D6
:102E600005211120FEF708FF1120FEF7F5FE08BD31
:102E70003038024000B587B01C2206496846FDF78D
:102E800030FA0021684601F06DFA0349086007B086
:102E900000BD0000C05300080800002000B587B046
:102EA000142102A8FDF736FA00BF00200190264841
:102EB000006840F00400244908600846006800F0FB
:102EC0000400019000BF00BF00BF00200190084631
:102ED000006840F0800008600846006800F080004C
:102EE000019000BF00BF00BF0020019008460068AD
:102EF00040F0010008600846006800F00100019001
:102F000000BF00BF00BF002001900846006840F0ED
:102F1000020008600846006800F00200019000BF4F
:102F200000BF012289150948FEF7DCFD4FF48070CF
:102F300002900120039000200490059002A903480C
:102F4000FEF7D6FC07B000BD30380240000002405A
:102F500010B50B480B4908604FF4E1304860002180
:102F600008488160C16001610C21416100218161DB
:102F7000C161FFF757FD08B1FDF722FD10BD00004C
:102F8000004400401004002010B50B480B490860B5
:102F90004FF4E1304860002108488160C160016160
:102FA0000C21416100218161C161FFF73BFD08B146
:102FB000FDF706FD10BD000000480040540400204D
:102FC00000BFFEE700BFFEE72DED028B00BF094802
:102FD00090ED030A10EE101A0846FDF72EFB41ECA7
:102FE000180B53EC182B04A000F062FB012001F039
:102FF000A8F9ECE75043002025660A0010B500BF91
:10300000502080F31188BFF34F8FBFF36F8F00BF45
:1030100002F0B0F818B14FF080500449086000BFCA
:10302000002080F3118800BF10BD000004ED00E017
:1030300000B593B0302107A8FDF76CF9142102A860
:10304000FDF768F900BF002001902548006840F0B6
:103050008050234908600846006800F080500190C5
:1030600000BF00BF00BF002001901E48006840F470
:1030700080401C4908600846006800F480400190C8
:1030800000BF00BF0220079001200A9010200B9083
:1030900002200D9000210E9108210F91A82110917E
:1030A000022111910421129107A8FEF799FF08B19E
:1030B000FDF786FC0F200290022003900020049070
:1030C0004FF4A05005904FF480500690052102A8BF
:1030D000FEF724FE08B1FDF773FC13B000BD00003D
:1030E00040380240007000400348006840F470001F
:1030F000014908607047000088ED00E010B5024803
:10310000FFF747FA10BD00001806002010B502684E
:10311000294B98420ED0B0F1804F0BD0274B9842EC
:1031200008D0274B984205D0264B984202D0264B18
:10313000984203D122F070024B681A431E4B98420A
:1031400020D0B0F1804F1DD01C4B98421AD01C4BA0
:10315000984217D01B4B984214D01B4B984211D069
:103160001A4B98420ED01A4B98420BD0194B9842EA
:1031700008D0194B984205D0184B984202D0184BF2
:10318000984203D122F44072CB681A4322F08003A4
:103190004C6943EA040202608B68C3620B68836275
:1031A000054B984202D0084B984201D10B6903634A
:1031B0000123436110BD00000000014000040040F5
:1031C00000080040000C00400004014000400140A5
:1031D000004401400048014000180040001C00402D
:1031E0000020004070B50546AC6B0020E085E0840F
:1031F0002046FFF7A6FA70BD00BF00BF02680C3280
:1032000052E8002F22F4907102680C3242E8001359
:10321000002BF3D100BF00BF00BF0268143252E898
:10322000002F22F001010268143242E80013002B43
:10323000F3D100BF016B01290ED100BF00BF0268AE
:103240000C3252E8002F22F0100102680C3242E8E2
:103250000013002BF3D100BF202180F83E10002185
:103260000163704710B504462068C06820F0400034
:103270002168C860202084F83D002046FFF780FDCB
:10328000002010BDF8B5044694F83E00222873D102
:10329000A068B0F5805F0CD1206950B90025A66AFE
:1032A00020684068C0F308003080A06A801CA062DB
:1032B00015E0A56A0026A068B0F5805F03D0A0687D
:1032C00028B9206918B920684068287004E020688F
:1032D000406800F07F002870A06A401CA062E08D6A
:1032E000401E80B2E085002844D12068C06820F0EC
:1032F00020002168C8602068C06820F480702168C0
:10330000C8602068406920F00100216848612020E1
:1033100084F83E00206B012826D10020206300BFE6
:1033200000BF21680C3151E8001F21F01000216816
:103330000C3141E80002002AF3D100BF2068006888
:1033400000F0100010280AD100BF00200090206873
:103350000068009020684068009000BF00BFA18D09
:103360002046FFF7EDF902E02046FFF79FFC002022
:10337000F8BD01E00020FBE70220F9E72DE9F84F56
:1033800004462068006920F44050E1680843216841
:1033900008612169A068084361690843E16908433D
:1033A00000902068C06849F20C6188430099084386
:1033B0002168C8602068406920F44070A169084312
:1033C0002168486176492068884203D075492068A1
:1033D000884203D1FEF79CFD814602E0FEF788FD9E
:1033E0008146E069B0F5004F6CD102206168A0FB16
:1033F000015003461920A9FB007001462A463846B1
:10340000FCF73EFF6421B0FBF1F04FEA001A022006
:103410006168A0FB01510B461920A9FB00712A46E7
:103420003846FCF72DFF834602206168A0FB01505F
:1034300003461920A9FB00712A463846FCF720FFF5
:103440006421B0FBF1F000EBC00101EB0010ABEB2D
:103450008000322101EBC0006421B0FBF1F000F0EC
:10346000F8000AEB400A02206168A0FB0150034605
:103470001920A9FB007001462A463846FCF700FFD8
:10348000834602206168A0FB015003461920A9FB76
:1034900000712A463846FCF7F3FE6421B0FBF1F0D8
:1034A00000EBC00101EB0010ABEB8000322101EB1F
:1034B000C0006421B0FBF1F000F007005044216827
:1034C00088606AE004206168A0FB0150034619206F
:1034D000A9FB007001462A463846FCF7D1FE824619
:1034E00004206168A0FB015003461920A9FB00706D
:1034F00001462A463846FCF7C3FE6421B0FBF1F0D2
:1035000000EBC00101EB0010AAEB8000322101EBBF
:1035100000106421B0FBF1F000F0F00A04206168B3
:10352000A0FB017003461920A9FB00513A4628462A
:10353000FCF7A6FE6421B0FBF1F00AEB001A0420B0
:103540006168A0FB01510B461920A9FB00712A46B6
:103550003846FCF795FE834604206168A0FB0150C5
:1035600003461920A9FB007001462A463846FCF79D
:1035700087FE6421B0FBF1F000EBC00101EB00100D
:10358000ABEB8000322101EB00106421B0FBF1F0C5
:1035900000F00F00504421688860BDE8F88F0000FB
:1035A0000010014000140140014691F83D0021281F
:1035B00028D18868B0F5805F0BD1086948B90A6ADC
:1035C0001088C0F308000B685860086A801C086205
:1035D00005E00B6A581C086218780B685860C88CA4
:1035E000401E80B2C88458B90868C06820F08000C6
:1035F0000B68D8600868C06840F040000B68D8606D
:10360000002070470220FCE72DE9F04104460D46FA
:1036100017469846069E34E0701C88B32EB1FEF71C
:1036200067FAA0EB0800B0422BD900BF00BF2168A9
:103630000C3151E8001F21F4D07021680C3141E8B1
:103640000002002AF3D100BF00BF00BF216814317F
:1036500051E8001F21F001002168143141E8000207
:10366000002AF3D100BF202084F83D0084F83E00FA
:1036700000BF002084F83C0000BF0320BDE8F081BB
:10368000FFE7206800682840A84201D1012000E03F
:103690000020B842C0D00020F0E7000010B502487A
:1036A000FFF750F810BD00001004002000BFFEE737
:1036B0000FB4054B10B503A9044A029800F0F6F8C0
:1036C00010BC5DF814FB000039410008D800002050
:1036D00002480068C0F30220704700000CED00E0D3
:1036E00010B5002804DB0A07130E054A135406E040
:1036F0000A07140E034A00F00F031B1FD45410BD19
:1037000000E400E018ED00E002E008C8121F08C164
:10371000002AFAD170477047002001E001C1121F52
:10372000002AFBD1704700002DE9FF5F82B0002125
:10373000DDE90430020DDDF840B0034318D044F653
:103740001050A2F2FF3242431514119801281FD0E5
:10375000A5EB0B00401C5FEA000A4FF000064E4F3D
:10376000DFF83891B046504615D5CAF1000413E091
:10377000119801244AA3012801D16FEA0B01029894
:10378000119AC0E90031C0E9024206B0BDE8F09FDD
:10379000CBF10000DFE704460021404A491842EB24
:1037A0000450CDE9001012E0E00707D032463B4656
:1037B00040464946FCF760FE8046894632463B4615
:1037C00010461946FCF758FE06460F466410002CBA
:1037D000EAD1DDE90401DDE90023BAF1000F06DAE0
:1037E000FCF74AFE42464B46FCF746FE05E0FCF776
:1037F000B5FE42464B46FCF7B1FE04460E4600229B
:10380000284BFCF745FF03D84FF0FF30014607E097
:103810000022254B20463146FCF787FDFCF7F4FFDC
:10382000102409E0002C0ADB0A220023FCF728FD03
:10383000039B30321A55641E50EA0102F2D1641C17
:10384000039AC4F111031444119A012A03D00122EE
:1038500008430DD10AE0084304D000204FF0110BBB
:10386000119072E7A3EB0B056D1E0DE05B4504DDC7
:103870004FF0000205F1010504E003DA4FF0000209
:10388000A5F10105002AECD002981199C0E9023196
:10389000C0E9004579E70000000014400000F03F57
:1038A000300000000000F0430000E03F2DE9FF4F32
:1038B00095B09B468946064600250FE2252877D11C
:1038C00000242746F84A0121059400E0044316F835
:1038D000013F203B01FA03F01042F7D130782A284B
:1038E00011D06FF02F033078A0F13002092A16D8DA
:1038F000059A44F0020402EB820203EB42021044F8
:10390000761C0590EFE759F8042B0592002A03DA9C
:10391000504244F40054059044F00204761C307880
:103920002E2816D116F8010F44F004042A280DD0D1
:103930006FF02F023078A0F13003092B09D807EB84
:10394000870302EB4303C718761CF3E759F8047B9F
:10395000761C30786C280FD006DC4C2817D06828ED
:103960000DD06A2814D104E0742810D07A280FD121
:103970000DE044F400140AE044F4801401E044F43F
:1039800040147278824202D104F58014761C761CB1
:10399000307866280BD013DC582877D009DC002853
:1039A00075D04528F6D04628F4D047281AD19DE195
:1039B00018E0632835D0642879D0652812D195E1C4
:1039C000702873D008DC6728F1D069286FD06E2882
:1039D0000DD06F2806D1B5E073282CD0752875D08E
:1039E000782874D05A46179990476D1C75E1C4F336
:1039F0000250022809D003280DD0D9F8001004285D
:103A00000DD00D6009F1040967E1D9F80010EA173B
:103A1000C1E90052F6E7D9F800100D80F2E70D7009
:103A2000F0E719F8041B8DF8001000208DF8010054
:103A3000EA46012003E059F804AB4FF0FF3061077C
:103A40004FF0000102D40DE008F101018846B942AF
:103A50000FDA8045F8DB1AF808100029F4D108E0E5
:103A600008F1010188468142FADB1AF808100029A2
:103A7000F6D105985B46A0EB080721463846179A11
:103A800000F094FA284400EB080507E04DE029E136
:103A90000DE01AF8010B5A4617999047B8F1010842
:103AA000F7D25B4621463846179A13E142E00A22D4
:103AB0000092C4F302524FF0000A022A08D059F8CB
:103AC00004CB032A4FEAEC710AD00DE029E02AE08A
:103AD00009F1070121F00702F2E802C1914609E06D
:103AE0000FFA8CFC4FEAEC71042A03D14FFA8CFCDC
:103AF0004FEAEC71002907DA0A460021DCF1000CDC
:103B000061EB02012D2202E0220504D52B228DF863
:103B10000420012203E0E20701D02022F7E79046CB
:103B200059E00A2102E010220DE010214FF0000AB6
:103B300000910BE010224FF0000A44F00404082723
:103B4000009203E008224FF0000A0092C4F30252F0
:103B5000022A05D059F804CB0021032A08D009E035
:103B600009F1070121F00702F2E802C1914605E0E0
:103B70001FFA8CFC042A01D10CF0FF0C4FF0000856
:103B8000220728D5702806D0009B83F0100353EA43
:103B90000A0305D00EE040228DF80420012208E03F
:103BA0005CEA010206D030228DF804208DF8050071
:103BB00002229046009B83F0080353EA0A030AD1CD
:103BC0005CEA010201D1620705D530228DF804209C
:103BD0004FF001087F1E582804D034A003900EA88F
:103BE00002900DE036A0F9E753466046009AFCF7D4
:103BF00047FB84460398825C0298401E0290027044
:103C00005CEA0100F0D1029806A9081A00F1200A26
:103C1000600702D524F4803400E00127574502DD17
:103C2000A7EB0A0000E0002000EB0A0100900598D5
:103C30004144401A0590E00306D45B462146179A9A
:103C4000059800F0B3F90544002706E001A85A469C
:103C5000C05D179990476D1C7F1C4745F6DBE0035C
:103C60000CD55B462146179A059800F09FF905444C
:103C700004E030205A46179990476D1C0099481E61
:103C800000900029F5DC08E0029802995A46007875
:103C9000491C0291179990476D1CBAF10001AAF1D5
:103CA000010AF1DC65E100000928010030313233FE
:103CB0003435363738396162636465660000000068
:103CC0003031323334353637383941424344454652
:103CD0000000000000F058F90544761C30780028F8
:103CE0007FF4ECAD19B02846BDE8F08F620700D430
:103CF000062709F1070222F0070CFCE80223E1463F
:103D000003F000485FEA080C02D00FF2702C0DE0BF
:103D10005FEA045C02D50FF2682C07E05FEAC47C1E
:103D200002D00FF2602C01E0AFF2700C4FF0FF38C0
:103D300023F00043CDF850C065280CD006DC4528A0
:103D400009D046281DD047283DD13DE0662818D02F
:103D500067287ED138E00021112F01DB112000E01F
:103D6000781CCDE9000106A90EA8FFF7DDFCDDE90E
:103D70000F010E9A03910021009207F1010A0491AC
:103D80004DE04FF000400097CDE9011006A90EA8C4
:103D9000FFF7CAFCDDE90F0203920E9B1199002286
:103DA000DDF80CA00093049211B9791C00EB010A14
:103DB000B7EB0A0004D4C0F1FF3007F1010A049008
:103DC000AAEB0700019044E0012F00DA012700214F
:103DD000112F01DD112000E03846CDE9000106A9D0
:103DE0000EA8FFF7A1FCDDE90F010E9A0391002157
:103DF00004910092BA4621070CD40399514500DA88
:103E00008A46BAF1010F05DD009AAAF10101515C61
:103E1000302908D0B84202DA10F1040F06DA012185
:103E2000CDE9011015E0AAF10101E9E7002805DC60
:103E3000049901440491AAEB000102E0411C5145A0
:103E400000DD8A460499401A401C01904FF0004062
:103E50000290200704D40198504501DBCDF804807E
:103E600000208DF84F0002980DF14F07B0F1004F80
:103E700025D02B200E9002984FF0020800280CDA73
:103E8000404202902D200E9007E00A210298FCF794
:103E900017FC3031029007F8011DB8F10001A8F1BC
:103EA0000108F2DC02980028EFD1791E0E98087004
:103EB000307800F0200040F0450007F8020D12A80D
:103EC000C01B00F107081498007800B1012000EB36
:103ED0000A01019801EBE07105984144401A401E27
:103EE0000590E00306D45B462146179A059800F03A
:103EF0005DF805441498007818B15A461799904710
:103F00006D1CE00324D55B462146179A059800F006
:103F10004DF805441CE00498002807DBDDE90301A7
:103F2000884203DD0098405C179901E01799302022
:103F30005A469047049805F10105401C04900198E9
:103F4000401E019004D12E205A46179990476D1CAF
:103F5000BAF10001AAF1010ADDDC05E017F8010B56
:103F60005A46179990476D1CB8F10001A8F1010855
:103F7000F4DC5B462146179A0598ABE62D0000005D
:103F80002B000000200000002DE9F0410446002530
:103F90001E461746880404D405E039462020B04761
:103FA0006D1C641EF9D52846BDE8F0812DE9F0416D
:103FB000044600251E469046C80301D5302700E080
:103FC0002027880404D505E041463846B0476D1CDB
:103FD000641EF9D52846BDE8F081000000B58BB01D
:103FE000282101A8FCF796F9002006900590019081
:103FF0000290039004900120099000200790012076
:10400000089001A90448FCF79FFD01A90248FCF7AC
:104010009BFD01200BB000BDC00300202DE9F04343
:1040200089B080460D4691461E46109F182103A870
:10403000FCF770F90024012002900020009001900C
:10404000039504900590069007978DF8200000BF17
:1040500004E0305D0DF80400601C44B2BC42F8D3AB
:1040600002AB6A4603A90648FCF7C2FC02AB6A46EB
:1040700003A90348FCF7BCFC09B0BDE8F0830000CD
:10408000C00300202DED028B84B02348FDF7F9F921
:10409000FFF7A4FF00BF2148B0F9000000EE100AAE
:1040A000B8EEC00A9FED1E1AC0EE010A9FED1D0A70
:1040B00020EE800A1C4880ED020A90ED020AF0EE24
:1040C000400A1A4890ED000A194800F043F8B0EE93
:1040D000408A154890ED030AF0EE400AB0EE480A17
:1040E000144800F075FCBCEEC00A10EE100A84B251
:1040F000200A8DF80800E0B28DF80900082002AB14
:10410000002240F2FF1100901046FFF787FF0120C8
:1041100000F017F9BFE70000C00300209000002066
:1041200000F8FF450000B443504300200400002085
:1041300024010020DC00002013B50C464FF0FF33B3
:10414000012269460248FEF7B2FD00981CBD00003E
:1041500054040020B0EE401A80ED051AC0ED060AA6
:1041600090ED070A80ED080A90ED050AD0ED061AD9
:1041700030EE610A80ED070A90ED070AF6EE001AAC
:10418000B4EEE10AF1EE10FA0CD290ED070AFEEE61
:10419000001AB4EEE10AF1EE10FA03DD9FED380AE1
:1041A00080ED070A90ED000AD0ED071A20EE210AF3
:1041B00080ED0D0A90ED0E0AD0ED011A90ED072A60
:1041C00001EE820A80ED0E0A90ED070AD0ED081A82
:1041D00030EE610AD0ED021A20EE210A80ED0F0ABE
:1041E00090ED0E0AD0ED031AF1EE611AB4EEE10A79
:1041F000F1EE10FA04D890ED030AB1EE400A0DE09A
:1042000090ED0E0AD0ED031AB4EEE10AF1EE10FAC9
:1042100002DB90ED030A01E090ED0E0A80ED0E0A3C
:1042200090ED0D0AD0ED0E1A30EE210AD0ED0F1AE6
:1042300030EE210A80ED100A90ED100AD0ED041A3C
:10424000F1EE611AB4EEE10AF1EE10FA04D890ED45
:10425000040AB1EE400A0DE090ED100AD0ED041A08
:10426000B4EEE10AF1EE10FA02DB90ED040A01E08F
:1042700090ED100A80ED100A90ED100A70470000D2
:10428000000000001CB5FDF745FCFEF7D1FEFEF76F
:1042900005FEFEF7BBFDFEF777FDFEF795FDFEF789
:1042A00057FEFEF771FE02211648FCF78CFB9FEDCE
:1042B000162ADFED151A9FED151AF0EE080A9FED8C
:1042C000140A144800F07DF89FED132ADFED0F1A51
:1042D0009FED0E1ADFED0D0AB2EE040A0F4800F052
:1042E00070F80F48042100238022CDE900100DA1B1
:1042F0000F4800F0AFFEFEF7BDFD00F02EF800BF46
:10430000FEE70000C00300200060EA460000000055
:1043100000002042DC000020000096432401002021
:104320000000002063616E5F74657374000000001C
:104330008540000801460020842901D0CA1C104491
:10434000704770B5044625460DB1294600E00121AD
:10435000084600F0F7FC002070BD10B500F020FD0D
:10436000002010BD7FB504460D46606998B1A06974
:1043700088B1B4F90800FFF7DDFF0646D4E905105F
:10438000CDE9006102902B462269D4E9001000F0CB
:1043900093FE039013E0B4F90800FFF7CBFF064645
:1043A00003A8CDE90060238A9AB22B46D4E9001015
:1043B00000F050FE012802D0002004B070BD039828
:1043C000FBE780ED000AC0ED010A80ED021AC0EDA6
:1043D000031A80ED042A70472DE9F04105460E4688
:1043E0001C4807681C480068001D00F0A7FB50B976
:1043F0001948006890F82C10012088401749096876
:10440000814316480160681C38B936B1124801680A
:10441000091D134800F0DCFB1AE07C190E48006807
:104420004460BC4207D20C480168091D0D48006871
:1044300000F0B4FB0CE008480168091D0A48006858
:1044400000F0ACFB09480068844201D207480460D0
:10445000BDE8F0813400002020000020380000205A
:104460003C070020280000202400002050000020ED
:1044700010B5044600F0B8FB23480068401C2249F0
:1044800008602248006840B9204804600846006877
:1044900001280DD100F03EF90AE01D48006838B946
:1044A0001A480068C06AE16A884201D81748046067
:1044B00018480068401C1749086094F82C10012027
:1044C000884015490968084313490860E16A01EB0F
:1044D0008101124A02EB8100211D00F079FB00F0FE
:1044E000ADFB0B48006868B108480068C06AE16A23
:1044F000884207D24FF0805009490860BFF34F8FC0
:10450000BFF36F8F10BD000030000020200000209E
:104510003C0000204C0000203800002060060020F5
:1045200004ED00E010B516E000F05EFB0C48C0683A
:10453000C468201D00F002FB0A480068401E0949BB
:10454000086009480068401E0749086000F076FBD3
:10455000204600F00BF8044800680028E4D110BDA4
:1045600028070020300000202C00002010B5044651
:1045700094F8510030B9206B00F07EFB204600F02B
:104580007BFB1AE094F85100012803D1204600F08B
:1045900073FB12E094F85100022801D1012000E0E1
:1045A000002050B900BF502080F31188BFF34F8F17
:1045B000BFF36F8F00BF00BFFEE710BD30B54FF4F3
:1045C0007053174800F007042CB1C01D20F00700FD
:1045D000134C041B1B1B0246124C22600024114D7D
:1045E0006C60D018083820F007000F4C20600024C1
:1045F0000D4D2D686C600C4D2D682C601146441AD1
:104600004C60094C24680C60084D4C682C60084DC7
:104610004C682C604FF00044064D2C6030BD00000B
:10462000500700205C000020640000206C00002087
:10463000680000207800002000BFFFF773FF0648E5
:1046400000680128F9D94FF0805004490860BFF391
:104650004F8FBFF36F8FF0E76006002004ED00E09E
:104660002DE9FF5F81460E469246DDE90E7B109CE8
:10467000AAF10100216B01EB800828F0070808F07F
:10468000070008B9012000E0002050B900BF502009
:1046900080F31188BFF34F8FBFF36F8F00BF00BF50
:1046A000FEE786B1002507E0715D04F13400415555
:1046B000705D00B902E06D1C102DF5D300BF002124
:1046C0004320015502E0002084F83400072F00D376
:1046D0000627E76267640020A064201D00F05BFAF3
:1046E00004F1180000F057FA2461C7F10700A06137
:1046F00064620020E06484F8500049464046039A12
:1047000000F050F92060BBF1000F01D0CBF8004061
:10471000BDE8FF9F10B5002407E004EB84010F4AB9
:1047200002EB810000F02AFA641C072CF5D30C4838
:1047300000F024FA0B4800F021FA0B4800F01EFAB2
:104740000A4800F01BFA0A4800F018FA0448094920
:10475000086004480849086010BD00006006002099
:10476000EC06002000070020140700202807002086
:104770003C070020240000202800002010B501463E
:10478000164800E0006803688B42FBD3024643688A
:1047900013448B4204D143684C6823444360014670
:1047A0000A464B6813440468A34211D10C4C0368B9
:1047B0002468A34208D04B680468646823444B60B3
:1047C00003681B680B6005E0054B1B680B6001E08C
:1047D00003680B60884200D0016010BD5C000020BF
:1047E000640000200A490968096809B9012100E04C
:1047F000002121B14FF0FF31064A116006E0044963
:104800000968C968C868034A4168116070470000B8
:1048100024000020500000200E480068401C08B909
:10482000012000E0002050B900BF502080F3118823
:10483000BFF34F8FBFF36F8F00BF00BFFEE700BF16
:10484000502080F31188BFF34F8FBFF36F8F00BFED
:1048500000BFFEE77C0000202DE9F04104464FF048
:10486000000800F0F5FA4948006808B9FFF7A6FE0D
:10487000474800682040002870D1D4B1083404F0C3
:104880000700B0B104F00700C0F10800044404F0D0
:10489000070008B9012000E0002050B900BF5020F7
:1048A00080F31188BFF34F8FBFF36F8F00BF00BF3E
:1048B000FEE7002C52D03748006884424ED8364E6E
:1048C0003046056801E02E462D686868A04202D295
:1048D00028680028F7D12D48006885423ED030680E
:1048E00000F10808286830606868001B102819D992
:1048F0002F1907F0070008B9012000E0002050B987
:1049000000BF502080F31188BFF34F8FBFF36F8F2C
:1049100000BF00BFFEE76868001B78606C60384627
:10492000FFF72CFF1B4968680968081A19490860D5
:104930000846006819490968884203D2154800688A
:1049400016490860124968680968084368600020D1
:10495000286013480068401C1149086000F0AEFC54
:1049600008F0070008B9012000E0002050B900BF9E
:10497000502080F31188BFF34F8FBFF36F8F00BFBC
:1049800000BFFEE74046BDE8F08100006400002063
:1049900078000020680000205C0000206C000020EF
:1049A00070000020001F4FF080730360001F21F093
:1049B00001030360001F054B036014380260001FF1
:1049C0006FF00203036020387047000019480008A8
:1049D00010B52DED048B0446B0EE408AF0EE608AEF
:1049E00084ED058AC4ED068A94ED070A84ED080A71
:1049F00094ED050AD4ED060A30EE600A84ED070A4C
:104A000094ED070A10EE101A0846FBF716FE41EC6B
:104A1000190B9FED450B53EC102BFBF721FE13D226
:104A200094ED070A10EE101A0846FBF706FE41EC5B
:104A3000190B9FED3F0B53EC102BFBF729FE03D214
:104A40009FED3D0A84ED070A94ED000AD4ED070AB4
:104A500020EE200A84ED090A94ED0A0AD4ED010A39
:104A600094ED071A00EE810A84ED0A0A94ED070A14
:104A7000D4ED080A30EE600AD4ED020A20EE200AD6
:104A800084ED0B0A94ED0A0AD4ED030AF1EE600AF4
:104A9000B4EEE00AF1EE10FA04D894ED030AB1EE98
:104AA000400A0DE094ED0A0AD4ED030AB4EEE00AE0
:104AB000F1EE10FA02DB94ED030A01E094ED0A0A2C
:104AC00084ED0A0A94ED090AD4ED0A0A30EE200AB0
:104AD000D4ED0B0A30EE200A84ED0C0A94ED0C0A9A
:104AE000D4ED040AF1EE600AB4EEE00AF1EE10FA39
:104AF00004D894ED040AB1EE400A0DE094ED0C0ADE
:104B0000D4ED040AB4EEE00AF1EE10FA02DB94ED03
:104B1000040A01E094ED0C0A84ED0C0A94ED0C0AF1
:104B2000BDEC048B10BD0000000000000000E03F61
:104B3000000000000000E0BF0000000001460A691C
:104B4000D1E901309860D1E901035860506888428A
:104B500001D188685060002008611068401E106014
:104B600010687047034B0360034B0B608023136096
:104B7000704700006C010020C001002000F1080116
:104B800041604FF0FF31816000F10801C1600161B7
:104B900000210160704700210161704710B5024695
:104BA0000B685C1C0CB9106907E002F1080000E01A
:104BB0004068446824689C42FAD944684C604C6858
:104BC000A160886041600A611468641C146010BDB3
:104BD00042684A6093688B6093685960916008618D
:104BE00003685B1C0360704700BF502080F311888E
:104BF000BFF34F8FBFF36F8F00BF0E480068401C9C
:104C00000C49086008460068012812D10A4800686B
:104C1000C0B208B9012000E0002050B900BF502008
:104C200080F31188BFF34F8FBFF36F8F00BF00BFBA
:104C3000FEE770477C00002004ED00E00D480068AE
:104C400050B900BF502080F31188BFF34F8FBFF3DE
:104C50006F8F00BF00BFFEE706480068401E054991
:104C600008600846006820B9002080F3118800BF62
:104C700000BF70477C00002070B506463546002E08
:104C800044D0083D2C46224960680968084008B1B4
:104C9000012000E0002050B900BF502080F31188AF
:104CA000BFF34F8FBFF36F8F00BF00BFFEE72068D9
:104CB00008B9012000E0002050B900BF502080F367
:104CC0001188BFF34F8FBFF36F8F00BF00BFFEE7A8
:104CD0000F49606809680840C0B12068B0B90C4944
:104CE000606809688843606000F0B2F8094960684C
:104CF00009680844074908602046FFF73FFD064859
:104D00000068401C0449086000F0D8FA70BD00003B
:104D100078000020680000207400002000204FF080
:104D2000E02108618861064800684FF47A71B0FBA1
:104D3000F1F0401E4FF0E021486107200861704704
:104D40001C00002070B504460025D4B1124800684C
:104D500008B9012000E0002050B900BF502080F3C6
:104D60001188BFF34F8FBFF36F8F00BF00BFFEE707
:104D700000F06EF800212046FFF72EFB00F09EFAAF
:104D800005463DB94FF0805004490860BFF34F8F8E
:104D9000BFF36F8F70BD00005800002004ED00E0ED
:104DA00010B586B000200590049003AA04A905A8B8
:104DB000FFF7D8FE0022DDE904101346CDE90021FB
:104DC00002901CA11D48039A00F076F91C49086066
:104DD0000846006808B1012400E00024012C15D128
:104DE00000BF502080F31188BFF34F8FBFF36F8F48
:104DF00000BF4FF0FF3013490860012012490860DE
:104E000000201249086000F071F810E0601C08B141
:104E1000012000E0002050B900BF502080F311882D
:104E2000BFF34F8FBFF36F8F00BF00BFFEE706B029
:104E300010BD000049444C45000000003946000800
:104E400054000020500000203C00002034000020CE
:104E500002480068401C0149086070475800002063
:104E60001D48006818B101201C49086032E000208C
:104E70001A4908601A480068B0FA80F0C0F11F01B2
:104E800001EB8100174A52F8200008B1012000E030
:104E9000002050B900BF502080F31188BFF34F8F1E
:104EA000BFF36F8F00BF00BFFEE701EB81020D4B28
:104EB00003EB820042685268426000F108024368D6
:104EC000934202D14268526842604268D268064BFF
:104ED0001A6000BF70470000580000204400002006
:104EE0003800002060060020200000201CB5524839
:104EF00000685249884201D0012000E0002050B9EA
:104F000000BF502080F31188BFF34F8FBFF36F8F26
:104F100000BF00BFFEE7484800684849491E884274
:104F200001D0012000E0002050B900BF502080F3E4
:104F30001188BFF34F8FBFF36F8F00BF00BFFEE735
:104F40003F49084600780190FF200A461070084645
:104F5000007800909DF8000000F0F0009DF800201F
:104F6000904201D1012000E0002050B900BF502044
:104F700080F31188BFF34F8FBFF36F8F00BF00BF67
:104F8000FEE79DF8000000F050002E4A1070072048
:104F90002D4A106009E02C480068401E2A4A106023
:104FA0009DF800004006000E00909DF8000000F003
:104FB00080008028EFD024480068C0F10700042852
:104FC00001D1012000E0002050B900BF502080F343
:104FD0001188BFF34F8FBFF36F8F00BF00BFFEE795
:104FE000194800680002184A10601046008800F452
:104FF000E0601060124A019810700F48203000687D
:1050000040F470000C49203108600846006840F008
:1050100070400860FFF782FE00200C490860FBF733
:10502000E1F80B48006840F0404009490860FBF790
:10503000C5F800201CBD000000ED00E071C20F416A
:1050400000E400E080000020840000207C000020BC
:1050500034EF00E02DE9FF4F85B0804689461746C2
:10506000DDE912ABB800FFF7F7FB064656B1542056
:10507000FFF7F2FB04460CB1266304E03046FFF76D
:10508000FBFD00E000248CB1002084F85100CDE944
:1050900000ABCDE902403A4649464046089BFFF73F
:1050A000DFFA2046FFF7E4F9012501E04FF0FF3574
:1050B000284609B0BDE8F08F2DE9F04F85B00746CE
:1050C000884691469A46DDE90EB6109C0EB1012045
:1050D00000E0002050B900BF502080F31188BFF3DA
:1050E0004F8FBFF36F8F00BF00BFFEE70CB10120F1
:1050F00000E0002050B900BF502080F31188BFF3BA
:105100004F8FBFF36F8F00BF00BFFEE754200390A7
:105110000398542801D1012000E0002050B900BFBD
:10512000502080F31188BFF34F8FBFF36F8F00BF04
:1051300000BFFEE700BFB4B1AEB125462C462E63DA
:10514000022085F85100002004A953464A46CDE9C3
:1051500000B1CDE9025041463846FFF781FA2846B2
:10516000FFF786F901E000200490049805B0BDE83F
:10517000F08F00002DE9F0414FF00008444800682E
:1051800000287CD143480068451C4248056015BB97
:1051900041480068006808B9012000E0002050B9CB
:1051A00000BF502080F31188BFF34F8FBFF36F8F84
:1051B00000BF00BFFEE73848076838480068364936
:1051C00008603648076036480068401C344908606B
:1051D000FFF708FB00BF3348006885423CD300BF9F
:1051E0002D480068006808B9012000E0002020B1C7
:1051F0004FF0FF302B4908602DE027480068C06859
:10520000C4686668B54202D22648066023E0201DC5
:10521000FFF794FCA06A18B104F11800FFF78EFCA8
:1052200094F82C10012088401F49096808431E4942
:105230000860E16A01EB81011C4A02EB8100211D3B
:10524000FFF7C6FC1A49E06A0968C96A8842C7D3F1
:105250004FF00108C4E700BF15480068C06A00EBC2
:105260008000124951F82000012801D94FF00108AF
:105270001048006808B14FF0010805E0FFE70E484C
:105280000068401C0C4908604046BDE8F081000001
:1052900058000020340000202400002028000020B6
:1052A0004800002050000020380000206006002048
:1052B00020000020440000204000002070B50024A1
:1052C00000263648006850B900BF502080F311888E
:1052D000BFF34F8FBFF36F8F00BF00BFFEE7FFF735
:1052E00083FC2E480068401E2C4908600846006870
:1052F00000284FD12A48006800284BD024E02948D4
:10530000C068C46804F11800FFF718FC201DFFF7FF
:1053100015FC94F82C1001208840234909680843A3
:1053200021490860E16A01EB8101204A02EB81001A
:10533000211DFFF74DFC1E49E06A0968C96A8842D1
:1053400002D301201B4908601648006808B90120F3
:1053500000E000200028D2D00CB1FFF743FA164835
:10536000056865B100BFFFF705FF10B101201149C5
:1053700008606D1E002DF6D100200F4908600D4811
:10538000006838B1012630070C490860BFF34F8F21
:10539000BFF36F8FFFF752FC304670BD58000020FE
:1053A0003000002014070020380000206006002094
:1053B00020000020440000204000002004ED00E018
:1053C000FC530008C92F0008000000000000000086
:1053D0008000000000000000000000000006101621
:1053E0000006101600000000000000000102030487
:1053F00006070809000000000102030464656661F5
:10540000756C745461736B00285400080000002010
:10541000DC0000000837000804550008DC0000200C
:105420008C46000018370008000000000000000053
:10543000000000000000000000000000100000005C
:10544000010000000024F400000000000000000043
:10545000000000000000000000000000000000004C
:10546000000000000000000000000000000000003C
:10547000000000000000000000000000000000002C
:10548000000000000000000000000000000000001C
:10549000000000000000000000000000000000000C
:1054A00000000000AAAAAAAA000000000000000054
:1054B00000000000000000000000E007E107E20734
:1054C000E307E407E507E607E707E807E907000061
:1054D00001F1391802F1391811F1391807F13918A9
:1054E000F1F1391801F13A1802F13A1803F13A18BA
:1054F00004F13A1805F13A1800000000000000001D
:0455000000000000A7
:040000050800018965
:00000001FF
